:020000040800F2
:1000000000000000410400082920020837200208EF
:100010003D20020843200208492002080000000099
:100020000000000000000000000000004F20020857
:10003000B520000800000000151E0008C1200008BF
:10004000C1200008C1200008C1200008C12000080C
:10005000C1200008C1200008C1200008C1200008FC
:10006000C1200008C1200008C1200008C1200008EC
:10007000C1200008C1200008C1200008C1200008DC
:1004000010B5054C237833B9044B13B10448AFF34E
:1004100000800123237010BD900200200000000026
:100420002C7E020808B5034B1BB103490348AFF308
:10043000008008BD00000000940200202C7E02080D
:1004400072B6DFF840D01048016841F470010160D5
:100450000E490F4A0F4B914204D053F8040B41F858
:10046000040BF8E74FF000000B490C4A914202D010
:1004700041F8040BFAE721F0A1FD23F0FDFD21F086
:1004800081FDFEE70000012088ED00E00000002073
:100490009002002088140308900200206C3900208C
:1004A00001F0FF01102A2BDB10F0070F08D010F825
:1004B000013B013A8B422DD010F0070F42B3F6D129
:1004C000F0B441EA012141EA014122F007047FF042
:1004D00000070023F0E80256083C85EA010586EA99
:1004E000010685FA47F5A3FA87F586FA47F6A5FAD5
:1004F00087F68EB9EED1F0BC01F0FF0102F00702E1
:1005000032B110F8013B013A83EA010313B1F8D18B
:100510000020704701387047002D06BF354603386C
:10052000073815F0010F07D1013015F4807F02BFA5
:10053000013015F4C03F0130F0BC0138704700BFF6
:1005400010F8012B11F8013B012A28BF9A42F7D07D
:10055000D01A7047034613F8012B002AFBD1181A52
:100560000138704781F0004102E000BF83F0004392
:1005700030B54FEA41044FEA430594EA050F08BF3E
:1005800090EA020F1FBF54EA000C55EA020C7FEA02
:10059000645C7FEA655C00F0E2804FEA5454D4EB7F
:1005A0005555B8BF6D420CDD2C4480EA020281EA49
:1005B000030382EA000083EA010180EA020281EA81
:1005C0000303362D88BF30BD11F0004F4FEA0131D3
:1005D0004FF4801C4CEA113102D0404261EB4101E2
:1005E00013F0004F4FEA03334CEA133302D0524268
:1005F00063EB430394EA050F00F0A780A4F1010424
:10060000D5F1200E0DDB02FA0EFC22FA05F280185D
:1006100041F1000103FA0EF2801843FA05F3594143
:100620000EE0A5F120050EF1200E012A03FA0EFCC2
:1006300028BF4CF0020C43FA05F3C01851EBE371EC
:1006400001F0004507D54FF0000EDCF1000C7EEB09
:1006500000006EEB0101B1F5801F1BD3B1F5001F47
:100660000CD349085FEA30004FEA3C0C04F1010466
:100670004FEA445212F5800F80F09A80BCF1004F8F
:1006800008BF5FEA500C50F1000041EB045141EA11
:10069000050130BD5FEA4C0C404141EB0101013CDA
:1006A00028BFB1F5801FE9D291F0000F04BF0146C9
:1006B0000020B1FA81F308BF2033A3F10B03B3F19B
:1006C00020020CDA0C3208DD02F1140CC2F10C022B
:1006D00001FA0CF021FA02F10CE002F11402D8BF89
:1006E000C2F1200C01FA02F120FA0CFCDCBF41EA55
:1006F0000C019040E41AA2BF01EB0451294330BD24
:100700006FEA04041F3C1CDA0C340EDC04F1140400
:10071000C4F1200220FA04F001FA02F340EA0300D7
:1007200021FA04F345EA030130BDC4F10C04C4F11D
:10073000200220FA02F001FA04F340EA03002946FD
:1007400030BD21FA04F0294630BD94F0000F83F447
:10075000801306BF81F480110134013D4EE77FEA2A
:10076000645C18BF7FEA655C29D094EA050F08BF76
:1007700090EA020F05D054EA000C04BF1946104657
:1007800030BD91EA030F1EBF0021002030BD5FEA9B
:10079000545C05D14000494128BF41F0004130BDC3
:1007A00014F580043CBF01F5801130BD01F0004517
:1007B00045F0FE4141F470014FF0000030BD7FEA8A
:1007C000645C1ABF194610467FEA655C1CBF0B4685
:1007D000024650EA013406BF52EA033591EA030F9C
:1007E00041F4002130BD00BF90F0000F04BF002194
:1007F000704730B54FF4806404F132044FF00005C7
:100800004FF0000150E700BF90F0000F04BF00213F
:10081000704730B54FF4806404F1320410F00045A5
:1008200048BF40424FF000013EE700BF42004FEAA0
:10083000E2014FEA31014FEA02701FBF12F07F431D
:1008400093F07F4F81F06051704732F07F4208BFD4
:10085000704793F07F4F04BF41F40021704730B5DB
:100860004FF4607401F0004521F000411CE700BF27
:1008700050EA010208BF704730B54FF000050AE0AA
:1008800050EA010208BF704730B511F0004502D5AB
:10089000404261EB41014FF4806404F132045FEAAD
:1008A000915C3FF4D8AE4FF003025FEADC0C18BF56
:1008B00003325FEADC0C18BF033202EBDC02C2F148
:1008C000200300FA03FC20FA02F001FA03FE40EADA
:1008D0000E0021FA02F11444BDE600BF70B54FF0DE
:1008E000FF0C4CF4E06C1CEA11541DBF1CEA1355BC
:1008F00094EA0C0F95EA0C0F00F0DEF82C4481EA24
:10090000030621EA4C5123EA4C5350EA013518BF43
:1009100052EA033541F4801143F4801338D0A0FB30
:1009200002CE4FF00005E1FB02E506F00042E0FBDD
:1009300003E54FF00006E1FB03569CF0000F18BFE3
:100940004EF0010EA4F1FF04B6F5007F64F540748B
:1009500004D25FEA4E0E6D4146EB060642EAC6211E
:1009600041EA55514FEAC52040EA5E504FEACE2E8B
:10097000B4F1FD0C88BFBCF5E06F1ED8BEF1004F8E
:1009800008BF5FEA500E50F1000041EB045170BD0A
:1009900006F0004646EA010140EA020081EA03014E
:1009A000B4EB5C04C2BFD4EB0C0541EA045170BD4A
:1009B00041F480114FF0000E013C00F3AB8014F1C4
:1009C000360FDEBF002001F0004170BDC4F100040D
:1009D000203C35DA0C341BDC04F11404C4F120058E
:1009E00000FA05F320FA04F001FA05F240EA0200E9
:1009F00001F0004221F0004110EBD37021FA04F61F
:100A000042EB06015EEA430E08BF20EAD37070BDD8
:100A1000C4F10C04C4F1200500FA04F320FA05F037
:100A200001FA04F240EA020001F0004110EBD37039
:100A300041F100015EEA430E08BF20EAD37070BDA9
:100A4000C4F1200500FA05F24EEA020E20FA04F382
:100A500001FA05F243EA020321FA04F001F0004131
:100A600021FA04F220EA020000EBD3705EEA430EA2
:100A700008BF20EAD37070BD94F0000F0FD101F0D1
:100A80000046400041EB010111F4801F08BF013C0A
:100A9000F7D041EA060195F0000F18BF704703F048
:100AA0000046520043EB030313F4801F08BF013DCF
:100AB000F7D043EA0603704794EA0C0F0CEA13558B
:100AC00018BF95EA0C0F0CD050EA410618BF52EA45
:100AD0004306D1D181EA030101F000414FF000004B
:100AE00070BD50EA410606BF1046194652EA430659
:100AF00019D094EA0C0F02D150EA013613D195EACD
:100B00000C0F05D152EA03361CBF104619460AD114
:100B100081EA030101F0004141F0FE4141F470011E
:100B20004FF0000070BD41F0FE4141F4780170BD0E
:100B300070B54FF0FF0C4CF4E06C1CEA11541DBF73
:100B40001CEA135594EA0C0F95EA0C0F00F0A7F875
:100B5000A4EB050481EA030E52EA03354FEA0131A2
:100B600000F088804FEA03334FF0805545EA1313B5
:100B700043EA12634FEA022245EA111545EA10657D
:100B80004FEA00260EF000419D4208BF964244F114
:100B9000FD0404F5407402D25B084FEA3202B61A33
:100BA00065EB03055B084FEA32024FF480104FF407
:100BB000002CB6EB020E75EB030E22BFB61A75467B
:100BC00040EA0C005B084FEA3202B6EB020E75EB0E
:100BD000030E22BFB61A754640EA5C005B084FEA76
:100BE0003202B6EB020E75EB030E22BFB61A754643
:100BF00040EA9C005B084FEA3202B6EB020E75EB4E
:100C0000030E22BFB61A754640EADC0055EA060E0E
:100C100018D04FEA051545EA16754FEA06164FEA51
:100C2000C30343EA52734FEAC2025FEA1C1CC0D1FD
:100C300011F4801F0BD141EA00014FF000004FF08A
:100C4000004CB6E711F4801F04BF01430020B4F14B
:100C5000FD0C88BFBCF5E06F3FF6AFAEB5EB030C03
:100C600004BFB6EB020C5FEA500C50F1000041EB00
:100C7000045170BD0EF0004E4EEA113114EB5C04CD
:100C8000C2BFD4EB0C0541EA045170BD41F48011A0
:100C90004FF0000E013C90E645EA060E8DE60CEAA8
:100CA000135594EA0C0F08BF95EA0C0F3FF43BAFC5
:100CB00094EA0C0F0AD150EA01347FF434AF95EA7C
:100CC0000C0F7FF425AF104619462CE795EA0C0F60
:100CD00006D152EA03353FF4FDAE1046194622E72D
:100CE00050EA410618BF52EA43067FF4C5AE50EA07
:100CF00041047FF40DAF52EA43057FF4EBAE12E7F7
:100D00004FF0FF3C06E000BF4FF0010C02E000BFD7
:100D10004FF0010C4DF804CD4FEA410C7FEA6C5CBA
:100D20004FEA430C18BF7FEA6C5C1BD001B050EA5D
:100D3000410C0CBF52EA430C91EA030F02BF90EA48
:100D4000020F0020704710F1000F91EA030F58BF07
:100D5000994208BF90422CBFD8176FEAE37040F069
:100D6000010070474FEA410C7FEA6C5C02D150EA07
:100D7000013C07D14FEA430C7FEA6C5CD6D152EAC2
:100D8000033CD3D05DF8040B704700BF8446104687
:100D900062468C461946634600E000BF01B5FFF786
:100DA000B7FF002848BF10F1000F01BD4DF808ED56
:100DB000FFF7F4FF0CBF012000205DF808FB00BF27
:100DC0004DF808EDFFF7EAFF34BF012000205DF881
:100DD00008FB00BF4DF808EDFFF7E0FF94BF0120CE
:100DE00000205DF808FB00BF4DF808EDFFF7CEFFCF
:100DF00094BF012000205DF808FB00BF4DF808ED0E
:100E0000FFF7C4FF34BF012000205DF808FB00BFDE
:100E10004FEA410C7FEA6C5C02D150EA013C0AD1F6
:100E20004FEA430C7FEA6C5C02D152EA033C02D1E8
:100E30004FF0000070474FF0010070474FEA410249
:100E400012F5001215D211D56FF47873B3EB62521C
:100E500012D94FEAC12343F0004343EA505311F043
:100E6000004F23FA02F018BF404270474FF00000D5
:100E7000704750EA013005D111F0004008BF6FF013
:100E8000004070474FF00000704700BF4A0011D289
:100E900012F5001211D20DD56FF47873B3EB6252D4
:100EA0000ED44FEAC12343F0004343EA505323FAE0
:100EB00002F070474FF00000704750EA013002D155
:100EC0004FF0FF3070474FF0000070474FEA41028B
:100ED000B2F1E04324BFB3F5001CDCF1FE5C0DD998
:100EE00001F0004C4FEAC0024CEA5070B2F1004FE2
:100EF00040EB830008BF20F00100704711F0804FE5
:100F000021D113F13872BCBF01F00040704741F4A9
:100F100080114FEA5252C2F11802C2F1200C10FAAD
:100F20000CF320FA02F018BF40F001004FEAC12391
:100F30004FEAD32303FA0CFC40EA0C0023FA02F335
:100F40004FEA4303CCE77FEA625307D150EA01330B
:100F50001EBF4FF0FE4040F44000704701F00040DB
:100F600040F0FE4040F40000704700BF7BB972B90A
:100F70000029BEBF00204FF0004106E008BF002856
:100F80001CBF6FF000414FF0FF3000F0EFB9ADF142
:100F9000080C6DE904CE002909DB002B1ADB00F0F8
:100FA00083F8DDF804E0DDE9022304B07047404235
:100FB00061EB4101002B1BDB00F076F8DDF804E06B
:100FC000DDE9022304B0404261EB4101524263EB90
:100FD00043037047524263EB430300F065F8DDF8CA
:100FE00004E0DDE9022304B0404261EB41017047B7
:100FF000524263EB430300F057F8DDF804E0DDE90B
:10100000022304B0524263EB4303704753B94AB919
:10101000002908BF00281CBF4FF0FF314FF0FF3000
:1010200000F0A4B9ADF1080C6DE904CE00F03CF875
:10103000DDF804E0DDE9022304B0704738B5002292
:10104000002304460D46FFF7BBFE28B9204629467B
:10105000BDE8384000F00AB8204605F1004100F034
:1010600005F8404261EB410138BD00BFD0B50C4BE3
:10107000002206460F46FFF731FCFFF707FF044644
:10108000FFF7B2FB074B0022FFF728FC02460B4696
:1010900030463946FFF76AFAFFF7F8FE2146D0BD21
:1010A0000000F03D0000F0412DE9F047089D0446A6
:1010B0008C46002B40F083808A42174647D9B2FA0B
:1010C00082F242B1C2F1200024FA00F09140974030
:1010D00040EA010C94404FEA1748230CBCFBF8F699
:1010E0001FFA87FE08FB16C143EA014306FB0EF117
:1010F000994209D9FB1806F1FF3080F01981994215
:1011000040F21681023E3B445B1AA4B2B3FBF8F0F6
:1011100008FB103344EA034400FB0EFEA64509D940
:101120003C1900F1FF3380F00581A64540F20281B1
:1011300002383C4440EA0640A4EB0E0400261DB1F0
:10114000D4400023C5E900433146BDE8F08702B929
:10115000FFDEB2FA82F2002A50D1CB1B4FEA174EC3
:101160001FFA87F80126B3FBFEFC210C0EFB1C3393
:1011700041EA034108FB0CF38B4207D979180CF1C3
:10118000FF3002D28B4200F2E9808446C91AA3B232
:10119000B1FBFEF00EFB101143EA014408FB00F81E
:1011A000A04507D93C1900F1FF3302D2A04500F257
:1011B000D9801846A4EB080440EA0C40BFE78B42F4
:1011C00009D9002D00F0B1800026C5E900013046A4
:1011D0003146BDE8F087B3FA83F6002E4AD18B4240
:1011E00002D3824200F2B880841A61EB030101202D
:1011F0008C46002DA8D0C5E9004CA5E7C2F120031C
:1012000020FA03F6974001FA02F04FEA174ED94050
:101210003043030CB1FBFEF61FFA87F80EFB1611E4
:1012200043EA014306FB08F1994204FA02F409D9A2
:10123000FB1806F1FF3C80F08D80994240F28A80D5
:10124000023E3B445B1A81B2B3FBFEF00EFB10334F
:1012500041EA034100FB08F38B4207D9791800F1FA
:10126000FF3C73D28B4271D902383944CB1A40EA21
:10127000064678E7C6F1200C03FA06F422FA0CF3CE
:101280001C4320FA0CF701FA06F34FEA144E21FA38
:101290000CF11F433B0CB1FBFEF91FFA84F80EFB67
:1012A000191143EA014109FB08FA8A4502FA06F2DC
:1012B00000FA06F308D9611809F1FF3048D28A45CF
:1012C00046D9A9F102092144A1EB0A01BFB2B1FB41
:1012D000FEF00EFB101147EA014700FB08F8B84585
:1012E00007D9E71900F1FF312ED2B8452CD90238C1
:1012F000274440EA0940A7EB0807A0FB02894F45B5
:10130000C64649461AD317D05DB1B3EB0E0267EB60
:10131000010707FA0CFCF2404CEA0202F740C5E96B
:10132000002700263146BDE8F0872E4628460BE709
:101330000646E9E61846FDE64345E5D2B8EB020E5F
:1013400069EB04010138DFE70846D2E760468DE724
:101350008146B9E7664675E730464AE7ACF1020CCC
:10136000394413E702383C4424E700BF704700BF0C
:1013700080B58AB000AFF860B9607A600023BB61C5
:1013800000237B6200233B62FB681B68BB61FB6838
:101390007A6A1A607B68002B01D17B6A40E078682A
:1013A000FFF7D8F803467B617B683B6209E03B6A44
:1013B0001B78202B02D13B6A00221A703B6A013352
:1013C0003B627B697A6813443A6A9A42EFD30023FE
:1013D000FB777B683B6219E03B6A1B78002B0FD0E0
:1013E000FB7F002B0CD17A6ABB699A4208DA7B6AD0
:1013F0009B00BA6813443A6A1A607B6A01337B62C5
:101400003B6A1B78FB773B6A01333B627B697A68F6
:1014100013443A6A9A42DFD3FB687A6A1A607B6A9D
:1014200018462837BD4680BD80B584B000AF7860CF
:101430007B68002B01D1002319E07868FFF78AF858
:10144000F860FB680133184600F0B4FBB860BB6875
:10145000002B01D100230AE0FA687968B86823F00C
:1014600063FEBA68FB68134400221A70BB68184612
:101470001037BD4680BD80B586B000AF786039605A
:101480007B68002B02D14FF0FF3327E07B683B6184
:1014900000F022FC02460B461346184623F000FDDE
:1014A00000237B6115E023F01FFD0346FB607B6991
:1014B0003A69D0183A687B69D31A042B28BF0423F1
:1014C0001A4607F10C03194622F00BFE7B69043320
:1014D0007B617A693B689A42E5DB0023184618373E
:1014E000BD4680BD80B487B000AFF860B9607A6057
:1014F0003B604FF0FF337B61FB68002B01D17B69C0
:101500000EE0FB68BA681A60FB687A685A60FB688C
:101510003A6A9A60FB683A68DA6000237B617B690B
:1015200018461C37BD465DF8047B704780B58AB00D
:1015300000AFF860B9607A604FF0FF33FB61FB6881
:10154000002B05D0BB68002B02D07B68002B01D19B
:10155000FB699FE0FB689A68FB685B689A4203D06E
:10156000FB685B68002B03DC0023FB61FB6991E0F7
:10157000FB685A68FB689B68D31A7A689342A8BFD5
:101580001346FB61FB697B62BB683B62FB68DA6800
:10159000FB689B681A44FB685B689A4227DDFB681E
:1015A000DA68FB689B681344FA68526893FBF2F1AF
:1015B00002FB01F29B1ABB617B6A7B61FB681A68C4
:1015C000BB6913443B617B69002B3FDD7B691A4695
:1015D000396A386922F085FDFB689A687B691A448C
:1015E000FB689A607A6A7B69D31A7B622EE0FB689B
:1015F000DA68FB689B681A447B6A1A44FB685B687C
:101600009A4223DDFB68DA68FB689B681344BB6180
:10161000FB685A68BB69D31A7B61FB681A68BB69AF
:1016200013443B617B691A46396A386922F059FDD7
:101630007B693A6A13443B62FB689A687B691A4487
:10164000FB689A607A6A7B69D31A7B627B6A002B9B
:101650001FDDFB68DA68FB689B681344FA68526810
:1016600093FBF2F102FB01F29B1ABB617B6A7B6187
:10167000FB681A68BB6913443B617B691A46396A87
:10168000386922F02EFDFB689A687B691A44FB6872
:101690009A60FB6918462837BD4680BD80B58AB080
:1016A00000AFF860B9607A604FF0FF33FB61FB6810
:1016B000002B05D0BB68002B02D07B68002B01D12A
:1016C000FB6970E0FB689B68002B03D0FB685B68DC
:1016D000002B03DC0023FB61FB6964E0FB689B6873
:1016E0007A689342A8BF1346FB61FB697B62BB68C3
:1016F0003B62FB68DA68FB6859687B6ACB1A9A42DE
:1017000031DBFB68DB68BB61FB685A68FB68DB6840
:10171000D31A7B61FB681A68BB6913443B617B6920
:10172000002B20DD7B691A463969386A22F0D9FC22
:10173000FB68DA687B691344FA68526893FBF2F13C
:1017400002FB01F29A1AFB68DA60FB689A687B690F
:10175000D21AFB689A607A6A7B69D31A7B627B69CA
:101760003A6A13443B627B6A002B1BDDFB68DB6833
:10177000BB617B6A7B61FB681A68BB6913443B6190
:101780007B691A463969386A22F0ABFCFB68DA6873
:101790007B691A44FB68DA60FB689A687B69D21A35
:1017A000FB689A60FB6918462837BD4680BD80B447
:1017B00085B000AF78604FF0FF33FB607B68002B93
:1017C00002D07B689B68FB60FB6818461437BD46F7
:1017D0005DF8047B704780B485B000AF78604FF04F
:1017E000FF33FB607B68002B07D07B6800229A6088
:1017F0007B680022DA600023FB60FB681846143720
:10180000BD465DF8047B704780B400AF034B1B7886
:101810001846BD465DF8047B704700BFAC0200204F
:1018200080B483B000AF0346FB71FB79052B01D96F
:10183000054B03E0FB79054A52F8233018460C3774
:10184000BD465DF8047B7047087F02080000002059
:1018500080B485B000AF78604FF0FF33FB60084B79
:101860001B68002B04D1064A7B6813600023FB60D1
:10187000FB6818461437BD465DF8047B704700BF0F
:10188000B002002090B589B002AFF860B9607A600C
:101890003B6000237B61114B1B68002B18D00F4B62
:1018A0001B685B68002B13D00C4B1B685B681B68C4
:1018B000002B0DD0094B1B685B681C68FB6A019309
:1018C000BB6A00933B687A68B968F868A04778619A
:1018D0007B6918461C37BD4690BD00BFB002002092
:1018E00080B584B000AF78604FF0FF33FB600D4BE4
:1018F0001B68002B11D00B4B1B685B68002B0CD0B6
:10190000084B1B685B685B68002B06D0054B1B68A7
:101910005B685B6878689847F860FB681846103722
:10192000BD4680BDB002002080B582B000AF7860B7
:101930000C4B1B68002B11D00A4B1B685B68002BFB
:101940000CD0084B1B685B68DB68002B06D0054B8E
:101950001B685B68DB687868984700BF00BF083782
:10196000BD4680BDB002002080B584B000AF786075
:101970000023FB600D4B1B68002B11D00B4B1B6829
:101980005B68002B0CD0094B1B685B681B69002B44
:1019900006D0064B1B685B681B6978689847F8603F
:1019A000FB6818461037BD4680BD00BFB00200205E
:1019B00080B584B000AF78600023FB600D4B1B68DE
:1019C000002B11D00B4B1B685B68002B0CD0094B14
:1019D0001B685B685B69002B06D0064B1B685B6865
:1019E0005B6978689847F860FB6818461037BD4611
:1019F00080BD00BFB002002080B584B000AF786029
:101A00000023FB600D4B1B68002B11D00B4B1B6898
:101A10005B68002B0CD0094B1B685B689B69002B33
:101A200006D0064B1B685B689B6978689847F8602E
:101A3000FB6818461037BD4680BD00BFB0020020CD
:101A400080B584B000AF78600023FB600D4B1B684D
:101A5000002B11D00B4B1B685B68002B0CD0094B83
:101A60001B685B68DB69002B06D0064B1B685B6854
:101A7000DB6978689847F860FB6818461037BD4600
:101A800080BD00BFB002002080B586B000AFF86016
:101A9000B9607A6000237B610E4B1B68002B13D06A
:101AA0000C4B1B685B68002B0ED00A4B1B685B68F5
:101AB0001B6A002B08D0074B1B685B681B6A7A689F
:101AC000B968F868984778617B6918461837BD4649
:101AD00080BD00BFB002002080B584B000AF786048
:101AE00039600023FB600E4B1B68002B12D00C4B9F
:101AF0001B685B68002B0DD0094B1B685B685B6A39
:101B0000002B07D0064B1B685B685B6A39687868F6
:101B10009847F860FB6818461037BD4680BD00BF87
:101B2000B002002080B584B000AF78600023FB6075
:101B30000D4B1B68002B11D00B4B1B685B68002BF7
:101B40000CD0094B1B685B689B6A002B06D0064BC8
:101B50001B685B689B6A78689847F860FB68184662
:101B60001037BD4680BD00BFB002002080B584B0F4
:101B700000AF78600023FB600D4B1B68002B11D079
:101B80000B4B1B685B68002B0CD0094B1B685B6818
:101B9000DB6A002B06D0064B1B685B68DB6A786843
:101BA0009847F860FB6818461037BD4680BD00BFF7
:101BB000B002002080B584B000AF78600023FB60E5
:101BC0000D4B1B68002B12D00B4B1B685B68002B66
:101BD0000DD0094B1B685B681B6C002B07D0064BB4
:101BE0001B685B681B6C7A6810469847F860FB6856
:101BF00018461037BD4680BDB002002080B582B0C7
:101C000000AF78607B68002B15D00D4B1B68002B54
:101C100011D00B4B1B685B68002B0CD0084B1B686A
:101C20005B685B6C002B06D0054B1B685B685B6CCC
:101C30007868984700BF00BF0837BD4680BD00BF29
:101C4000B002002080B584B000AF78600023FB6054
:101C5000114B1B68002B1AD00F4B1B685B68002BC5
:101C600015D00D4B1B685B681B6C002B0FD00A4B0B
:101C70001B685B681B6C7A6810469847F860FB68C5
:101C8000002B04D07A680021F86822F052FAFB6831
:101C900018461037BD4680BDB002002080B584B024
:101CA00000AF786039600023FB607B683A6802FB14
:101CB00003F3BB60B86800F02CFD0346FB60FB68D3
:101CC000002B04D0BA680021F86822F032FAFB68D1
:101CD00018461037BD4680BD80B582B000AF4FF0CA
:101CE00000024FF00003C7E900230E4B1B68002BD6
:101CF00011D00C4B1B685B68002B0CD0094B1B6888
:101D00005B68DB6C002B06D0064B1B685B68DB6CEA
:101D10009847C7E90001D7E900231046194608375C
:101D2000BD4680BDB002002080B582B000AF4FF04C
:101D3000FF337B600C4B1B68002B10D00A4B1B68D9
:101D40005B68002B0BD0084B1B685B681B6D002B7E
:101D500005D0054B1B685B681B6D984778607B68F6
:101D600018460837BD4680BDB002002080B582B05D
:101D700000AF4FF0FF337B6000F0AEFC78607B6813
:101D800018460837BD4680BD72B615481549026829
:101D900041EA0201016014484FF00101016013485B
:101DA0004168016001688A884FF0100342EA03022B
:101DB0008A80D1F800C04FF002030CF1240C0CF122
:101DC000040CDCF80000DCF814E0DCF818200CF15E
:101DD000200C8CF3098862B683F31488104700BF87
:101DE00020ED00E00000FFFF5C35002054350020AE
:101DF000EFF3108072B6704700BF184680F310886A
:101E0000704700BF02484FF080510160704700BF2B
:101E100004ED00E0EFF3108C72B6194A126822B19B
:101E20002DE900509047BDE80050EFF309801EF007
:101E3000100F01D120ED108B40F804ED20E9F01FC8
:101E4000104D4FF010082E683060B78827EA080759
:101E5000B78068682860878847EA08078780016834
:101E6000B1E8F01F51F804EB1EF0100F01D1B1ECF6
:101E7000108B81F309888CF31088704700BF000035
:101E8000BC0200205435002080B483B000AF03466C
:101E90003960FB7197F90730002B0ADB3B68DAB237
:101EA0000C4997F907301201D2B20B4483F8002392
:101EB0000AE03B68DAB20849FB7903F00F03043B00
:101EC0001201D2B20B441A7600BF0C37BD465DF842
:101ED000047B704700E100E000ED00E080B582B0D7
:101EE00000AF78607B68013BB3F1807F01D30123B1
:101EF0000FE00A4A7B68013B53600F214FF0FF302F
:101F0000FFF7C2FF054B00229A60044B07221A60BC
:101F1000002318460837BD4680BD00BF10E000E032
:101F200080B584B002AF1D4B1B68002B04D01B4B47
:101F30001B68B3F57A7F01D2194B2AE00023009386
:101F4000184B002207214FF0FF3000F0FDF8134B33
:101F50001B68154AA2FB03239B09144A136014490A
:101F60004FF000024FF00003C1E900230B4B1B6848
:101F70000D4AA2FB03239B091846FFF7AFFF7860C9
:101F80007B68012B01D10B4B03E00B4B01221A6044
:101F9000002318460837BD4680BD00BF9C000020C6
:101FA0000004000205280008D34D621018350020F7
:101FB0001035002002040002B802002080B485B071
:101FC00000AF78607B6803F00703FB600C4BDB68B5
:101FD000BB60BA684FF6FF031340BB60FB681A0290
:101FE000BB68134343F0BF6343F40033BB60044A50
:101FF000BB68D36000BF1437BD465DF8047B7047F3
:1020000000ED00E080B483B000AF0346FB7197F9A8
:102010000730002B0BDBFB7903F01F02074997F910
:1020200007305B09012000FA02F241F8232000BFCB
:102030000C37BD465DF8047B704700BF00E100E04F
:1020400080B483B000AF03463960FB7197F9073065
:10205000002B0ADB3B68DAB20C4997F90730120112
:10206000D2B20B4483F800230AE03B68DAB2084995
:10207000FB7903F00F03043B1201D2B20B441A7632
:1020800000BF0C37BD465DF8047B704700E100E0FF
:1020900000ED00E080B483B000AFEFF305837B6018
:1020A0007B6818460C37BD465DF8047B704780B4EA
:1020B00000AFFEE780B500AFFFF7F9FF00BF80BDBE
:1020C00080B582B000AFFFF793FE7860154B1B68B8
:1020D0000133144A13607868FFF790FEFFF7DAFFC8
:1020E00038603B680F3B3B600F4A3B6852F8233037
:1020F000002B05D00C4A3B6852F82330984701E08A
:10210000FFF7D5FFFFF774FE7860064B1B68013BB5
:10211000044A13607868FFF771FE00BF0837BD46B8
:1021200080BD00BFB40200204831002080B500AF60
:10213000034B044A9A600720FFF740FF00BF80BDB1
:1021400000ED00E00000000880B586B000AFF86048
:102150007B600B467B8113463B817B68002B01D162
:10216000164B26E0FB68EF2B05D9FB68B3F1FF3F68
:1021700001D0134B1DE07B89072B01D9114B18E0CF
:10218000FFF736FE7861FB6801330F497A6841F842
:102190002320FB685BB21846FFF734FFFB685BB295
:1021A0007A8911461846FFF74BFF7869FFF726FE3C
:1021B000002318461837BD4680BD00BF0109000244
:1021C00000090002050900024831002080B500AF77
:1021D000FFF718FE00BF80BD80B582B000AFFFF7EB
:1021E00007FE786001F060FB0346283B0B4A536012
:1021F0000A4B1A68094B5B689A4209D0084B1B8846
:10220000002B05D17868FFF7F9FDFFF7FBFD02E031
:102210007868FFF7F3FD0837BD4680BD54350020D0
:102220005035002080B400AF72B600BFFEE700005A
:1022300080B586B000AF786039607B68DB687B6111
:102240007B689B687A6913443B617B689B681A468C
:102250004FF0CA31786921F06CFF7B694FF0CC32C6
:102260001A603B69483B3B613B69FB60FB684FF090
:1022700004321A60FB684FF005325A60FB684FF079
:1022800006329A60FB684FF00732DA60FB684FF065
:1022900008321A61FB684FF009325A61FB684FF04F
:1022A00010329A61FB684FF01132DA61FB6800224C
:1022B0001A62FB686FF002025A627B681A69FB6857
:1022C0009A62FB684FF00132DA62FB684FF002322B
:1022D0001A63FB684FF003325A63FB684FF0123207
:1022E0009A63084AFB68DA63074AFB681A64FB686A
:1022F0004FF080725A647B683A691A6000BF1837E1
:10230000BD4680BD25220008A12F000880B584B0FD
:1023100000AF78600823FB600821482003F0BEF975
:1023200002467B68DB681A447B68DA607B68DB689E
:10233000BB60064B1B68FA68B968184602F06EF974
:10234000034618461037BD4680BD00BF0C3500203F
:1023500080B584B000AFFFF79DFE0346002B06D08A
:102360004FF000024FF00003C7E902230AE0FFF735
:102370003FFD7860074BD3E90023C7E90223786863
:10238000FFF73CFDD7E90223104619461037BD463A
:1023900080BD00BF1035002080B582B000AF7860EE
:1023A0003960386800F0B5F9034618460837BD466D
:1023B00080BD80B584B000AFF860B9607A607B689A
:1023C0001946B86800F04CF9034618461037BD4668
:1023D00080BD80B584B000AFF860B9607A6079687C
:1023E000B86800F0A2F9034618461037BD4680BD14
:1023F00080B582B000AF78603960386800F07EF94F
:1024000000BF0837BD4680BD80B582B000AF7860A0
:102410007B68184601F044F800BF0837BD4680BD10
:1024200080B58EB000AFF860B9607A603B60002381
:102430007B6300233B6307F1140318220021184635
:1024400021F077FE7B68FB617B6C9BB23B83FB6872
:102450007B62BB687B613B683B6207F1140207F15A
:102460002C031146184600F0A5FE38633B6B002B89
:1024700001D07B6B02E0FB6A7B637B6B18463837CD
:10248000BD4680BD80B584B000AF78604FF0FF33AB
:10249000FB607B68002B09D07B68BB60B86800F0EC
:1024A000FFFE0346002B01D10023FB60FB681846AA
:1024B0001037BD4680BD80B582B000AF00F0F2FCA1
:1024C0007860786800F0ECFE00BF0837BD4680BD3C
:1024D00080B582B000AF7860786801F0B1FD034646
:1024E000002B01D1012300E0002318460837BD4628
:1024F00080BD80B582B000AF78607B684FF0FF315F
:10250000184601F059FE0346002B01D1012300E0DB
:10251000002318460837BD4680BD80B582B000AFA5
:1025200078607B68184601F013FF0346002B01D149
:10253000012300E0002318460837BD4680BD80B562
:1025400082B000AF78607B68184601F0D5FD034685
:10255000002B01D1012300E0002318460837BD46B7
:1025600080BD80B584B000AFF860B9607A607B68E8
:102570009BB2BA6891B2FA68184601F0FDFA0346B8
:10258000002B01D1012300E0002318461037BD467F
:1025900080BD80B582B000AF786039603B68B3F130
:1025A000FF3F02D14FF0FF333B607B68396818462C
:1025B00001F0A6FB0346002B01D1012300E000231C
:1025C00018460837BD4680BD80B582B000AF786040
:1025D0007B68184601F030FC0346002B01D1012333
:1025E00000E0002318460837BD4680BD80B582B0A4
:1025F00000AF78607B68184601F020FB0346002B93
:1026000001D1012300E0002318460837BD4680BDF4
:1026100080B584B000AF78600023FB607B68002B3E
:1026200007DD064B1B687A681146184601F0D3FF98
:10263000F860FB6818461037BD4680BD0C35002099
:1026400080B582B000AF7860044B1B68796818468B
:1026500002F004F800BF0837BD4680BD0C350020ED
:1026600080B582B000AF78603960064B1B683A686D
:102670007968184601F0E2FF034618460837BD4660
:1026800080BD00BF0C35002080B500AFFFF760FEB5
:1026900002460B461046194680BD80B400AF0023A9
:1026A0001846BD465DF8047B704780B586B002AF22
:1026B000F860B9607A603B60F868BB6899B27B6883
:1026C0009AB2BB6900933B68FFF73EFD034618468C
:1026D0001037BD4680BD000080B582B000AF4FF01E
:1026E000FF337B600448FFF7B3F878607B681846D7
:1026F0000837BD4680BD00BFECB7020880B582B088
:1027000000AF78607868FFF779FA00BF0837BD46F8
:1027100080BD80B582B000AF78607868FFF74AFA74
:10272000034618460837BD4680BD80B582B000AF6D
:102730007860396039687868FFF7B0FA0346184660
:102740000837BD4680BD000080B400AF034B1022A7
:102750001A6000BFBD465DF8047B70474C35002011
:1027600080B582B000AFFFF7DBFB78607B68002BA1
:1027700001D07B6802E0FFF707FB7B68184608374B
:10278000BD4680BD80B582B000AFFFF7DDFF01F030
:10279000A5FE78607B68002B01D07B682EE0FFF7F8
:1027A000C5FC00F0BFFA78607B68002B01D07B6825
:1027B00024E000F0D9FB01F0A1F978607B68002BE0
:1027C00001D07B681AE001F003FC78607B68002B85
:1027D00001D07B6812E001F0E7F878607B68002B9D
:1027E00001D07B680AE000F03DF800F033FB786030
:1027F0007B68002B01D07B6800E000231846083777
:10280000BD4680BDB0B500AF0D4B1B68002B09D194
:102810000C4BD3E90023541C43F10005094BC3E9D9
:1028200000450CE0074BD3E90023501C43F10001A5
:10283000044BC3E9000100F025F800F0A5F9B0BD94
:10284000B80200201035002080B400AF044BD3E95B
:10285000002310461946BD465DF8047B704700BF53
:102860001035002080B400AF054B00221A60044BE5
:102870000A22DA8000BFBD465DF8047B704700BFC6
:102880002835002080B500AF124B1A68124B1B6828
:102890009A420FD0104B1B680E4A13600F4BD3E9BE
:1028A000002392B20B4BDB8813449BB2013B9AB2DC
:1028B000084B9A80074B9988084BD3E9002393B2C1
:1028C000994204D1034B00221A6000F0ADFE00BF14
:1028D00080BD00BF28350020543500201035002071
:1028E00080B483B000AF78607B687A685A607B6898
:1028F0007A681A6000BF0C37BD465DF8047B7047EC
:1029000080B483B000AF786039607B685A683B68F8
:102910005A603B687A681A607B685B683A681A603C
:102920007B683A685A6000BF0C37BD465DF8047B8F
:10293000704780B582B000AF786039607B681B68F3
:1029400039681846FFF7DCFF00BF0837BD4680BD79
:1029500080B483B000AF78607B685B687A68126887
:102960001A607B681B687A6852685A607B6800222C
:102970005A607B6800221A6000BF0C37BD465DF8C4
:10298000047B704780B483B000AF78607B685B687D
:102990007A689A420CBF01230023DBB218460C3739
:1029A000BD465DF8047B704780B400AFFEE780B59C
:1029B00082B000AF78600B467B807B689B8803F019
:1029C0000403002B1FD07B682833184600F042FF19
:1029D0007B689B8823F004039AB27B689A807B68AB
:1029E0007A88DA807B689B8843F004039AB27B681C
:1029F0009A807B6803F128027B68DB8819461046C1
:102A000000F0FEFE02E07B687A88DA8000BF0837BB
:102A1000BD4680BD80B586B000AF786039603B6848
:102A200003F01F03FB603B685B093B61FB68002B05
:102A300002D13B69013B3B617B689B6B03F07842B1
:102A40003B691A437B689A63354B9B881A46FB683F
:102A50001344FB60FB6803F01F03FB607B689B6B08
:102A600023F07842FB68DB061A437B689A632C4BA1
:102A70001A68FB68DB001344BB60BB685B68BA681C
:102A80009A4206D17B6830331946B868FFF751FF88
:102A900041E0BB685B68303B7B617B699B6B23F0EB
:102AA00078427B689B6B23F078439A4210D87B680E
:102AB0009B6B03F078427B689B6B23F078417B69CA
:102AC0009B6B23F07843CB1A1A437B689A6310E020
:102AD0007B699B6B03F078427B699B6B23F07841A9
:102AE0007B689B6B23F07843CB1A1A437B699A630C
:102AF00008E07B695B6B303B7B617B693033BA6894
:102B00009A42CAD17B6903F130027B68303319469F
:102B10001046FFF70EFF00BF1837BD4680BD00BF4F
:102B20004035002080B586B000AF78607B689B6B35
:102B3000DB0E7B61134B1A687B69DB0013443B613E
:102B40007B685B6B3A699A4213D07B685B6B303B66
:102B5000FB60FB689B6B03F07842FB689B6B23F088
:102B600078417B689B6B23F078430B441A43FB68E6
:102B70009A637B6830331846FFF7EAFE00BF1837C8
:102B8000BD4680BD4035002080B584B000AF002335
:102B9000BB604F4B9B8801335A4203F01F0302F086
:102BA0001F0258BF53429AB2494B9A80484B1A6849
:102BB000474B9B88DB0013447B607B685B687A68CB
:102BC0009A4200F081807B685B68303BFB6070E07C
:102BD000FB689B887B80FB689B6B23F07843002B12
:102BE00005D0FB689B6B5A1EFB689A6366E0FB6826
:102BF00030331846FFF7ACFE7B8803F008039BB226
:102C0000002B12D0FB689B8823F008039AB2FB6864
:102C10009A80FB6828331846FFF79AFEFB6800226B
:102C20009A61FB680022DA6127E07B8803F4806305
:102C30009BB2002B07D0FB689B8823F480639AB279
:102C4000FB689A8019E07B8803F400539BB2002B49
:102C50000CD0FB6828331846FFF77AFEFB689B8888
:102C600023F400539AB2FB689A8006E0FB689B88C5
:102C700023F020039AB2FB689A807B8803F002035A
:102C80009BB2002B11D1FB689B8843F004039AB2DE
:102C9000FB689A80FB6803F12802FB68DB88194611
:102CA000104600F0ADFD0123BB607B685B68303BE4
:102CB000FB60FB6830337A689A4289D1BB68002B8D
:102CC00003D0FFF789FA00E000BF1037BD4680BD92
:102CD0004035002080B483B000AF00237B6010E05B
:102CE0000E4B1A687B68542101FB03F313443B60CD
:102CF0003B689B8803F00103002B00BF7B68013316
:102D00007B60074B1B687A689A42E9D30023184618
:102D10000C37BD465DF8047B704700BF4835002086
:102D20004C35002080B584B000AF414B1B680133A7
:102D3000542202FB03F37B603E4B1B687968184604
:102D400001F049FC03463C4A13603B4B1B68002BD7
:102D500001D13A4B67E0384B1B687A68002118466E
:102D600021F0E7F93648FFF7BBFD3648FFF7B8FD1D
:102D70003548FFF7B5FD0023FB6020E02E4B1A68B5
:102D8000FB68542101FB03F3134401229A802A4B70
:102D90001A68FB68542101FB03F31344FA681A61B3
:102DA000254B1A68FB68542101FB03F313442833B5
:102DB00019462448FFF7BDFDFB680133FB60FB6843
:102DC0000F2BDBD908220021204821F0B2F900F0B6
:102DD000E5FC4FF480737B60164B1B6879681846DE
:102DE00001F0F9FBB860BB68002B01D1134B1AE06E
:102DF0007A680021B86821F09CF9154ABB68136015
:102E0000134B00229A800023FB6008E0B868FFF7AC
:102E100067FDFB680133FB60BB680833BB60FB6880
:102E20001F2BF3D9002318461037BD4680BD00BFC5
:102E30004C3500200C3500204835002000020003EE
:102E4000C036002060350020383500205435002081
:102E50004035002080B588B000AF3B1D182200210E
:102E6000184621F066F90C4B7B604FF400733B6110
:102E70000A4B7B611F233B813B1D1946084800F02C
:102E800099F9F861FB69002B01D0FB6900E0002390
:102E900018462037BD4680BDA9290008787F020862
:102EA0003035002080B400AF064B1B68002B01D1E9
:102EB000054B02E0034B1B681B691846BD465DF8D5
:102EC000047B7047543500200702000280B500AF34
:102ED000224B5B681B681A46204B5B68DB689A4292
:102EE0001E4B5B681A691E4B1B7891B21C4A5B0033
:102EF00013440A465A801A4B1B785B011033184A58
:102F00001344981D154B5B685B6A2022194621F01B
:102F1000E8F8134B1B78124A5B0113443533002247
:102F20001A700F4B1B780133DAB20D4B1A700C4B31
:102F30001B780A2B09D10A4B00221A70084B5B78C8
:102F400063F07F03DAB2064B5A70064B1B68002B06
:102F500002D0044B1B68984700BF80BD5435002049
:102F600068350020C002002080B500AF4FF4AB727E
:102F70000021074821F0DDF8054B0A225A70054B65
:102F8000054A1A60054B00221A6000BF80BD00BFD1
:102F900068350020BC020020CD2E0008C0020020B1
:102FA00080B584B000AF78600B4B1A687B68542101
:102FB00001FB03F31344FB60FB685B69FA68126A68
:102FC00010469847FB681B69184600F069F900BF76
:102FD0001037BD4680BD00BF4835002080B588B0A1
:102FE00000AF7860396000237B614FF0FF33BB6135
:102FF0007B68002B01D1634BBFE03B68002B01D104
:10300000614BBAE03B681B69002B01D15F4BB4E018
:103010003B681B68002B01D15D4BAEE03B689B8891
:103020001F2B01D95B4BA8E03B689B881F2B06D167
:103030003B681B68584A934201D0564B9DE03B6861
:10304000DB68002B03D13B684FF43472DA603B68D5
:10305000DB680821184602F021FB02463B68DA6073
:103060003B68DB68B3F5987F01D24C4B85E0FEF7F7
:10307000BFFEF86119E04A4B5B68283B3B61484B57
:103080005B681846FFF764FC3B69283319464548DE
:10309000FFF736FC444B1A683B69DB68194610465B
:1030A00001F0DCFA3B690022DA603D48FFF76AFC78
:1030B0000346002BDFD03B48FFF764FC0346002BA0
:1030C00002D03A4BBB6154E0364B5B68283B3B6116
:1030D000344B5B681846FFF73BFCF869FEF78EFE41
:1030E0003B691B697B613868FFF710F9F860FB6882
:1030F000002B0BD1FEF77CFEF8613B6928331946A3
:103100002848FFF7FDFB2A4BBB6132E03B689A6819
:103110003B691A62FA683B69DA603B68DA683B69C6
:103120009A603B6900229A613B690022DA613B693F
:1031300002229A803B689A883B69DA803B681A6869
:103140003B695A613B694FF0FF32DA633B69002209
:103150009A643B681A693B695A623B6900221A65A6
:1031600039683869FFF764F87B687A691A60002368
:1031700003E0F869FEF742FEBB6918462037BD46FA
:1031800080BD00BF0702000201020002050200022A
:103190000402000203020002A9290008060200023C
:1031A00038350020603500200C3500201102000267
:1031B00000020003B0B58CB000AF78603960002326
:1031C000FB623B68002B01D1304B5BE03B6807F1B1
:1031D0000C041D460FCD0FC495E8030084E80300DE
:1031E00007F10C0319467868FFF7F8FEF862FB6AEE
:1031F000002B01D0FB6A45E0254B1A687B681B68F1
:10320000542101FB03F31344BB62FEF7F1FD786226
:10321000BB6A9B8823F002039AB2BB6A9A80BB6A9E
:103220009B8843F004039AB2BB6A9A80BB6A03F19D
:103230002802BB6ADB881946104600F0E1FA00F06C
:1032400033FB0346283B134A5360134B1B68002B88
:1032500014D0124B1B88002B10D10E4B1A680D4B4B
:103260005B689A420AD00D4B1B88002B06D1786A06
:10327000FEF7C4FDFEF7AAFF002303E0786AFEF71D
:10328000BDFD002318463037BD46B0BD0102000227
:1032900048350020543500205C3500205035002092
:1032A00080B586B000AF78604FF0FF337B616F4B25
:1032B0001B687A689A4201D16D4BD3E06D4B1B6855
:1032C0007A689A4201D16C4BCCE06C4B1B687A68EF
:1032D0009A4201D36A4BC5E0FEF78AFD3861FFF7D9
:1032E000E1FD02467B68934202D1664B00221A80C0
:1032F000654B1A687B68542101FB03F31344FB60A0
:10330000FB689B887B817B8903F001039BB2002BC8
:1033100007D05E4B7B6100BF3869FEF76FFD7B69AC
:10332000A0E07B8903F010039BB2002B06D0554B25
:103330001B88002B02D0534B00221A807B8903F09C
:1033400004039BB2002B0CD0FB682833184600F016
:1033500081FAFB689B8823F004039AB2FB689A8089
:1033600010E07B8903F008039BB2002B05D17B8919
:1033700003F400539BB2002B04D0FB68283318469B
:10338000FFF7E6FA7B8903F060039BB2002B02D0C3
:10339000F868FFF7C7FBFB689B8823F002039AB22B
:1033A000FB689A80FB689B8843F001039AB2FB6834
:1033B0009A80FB684FF0FF32DA63FB6800229A6460
:1033C00000F072FA0346283B314A5360FB689B8841
:1033D00003F010039BB2002B2CD0FB682833194656
:1033E0002C48FFF7A6FA284B1A68244B1B68542177
:1033F00001FB03F31344264A1360254B1B687A68CC
:103400001A61234B1B68FA6892889A80204B1B68CC
:10341000FA68D268DA601E4B1B68FA68526A5A6210
:10342000FB6801229A803869FEF7E8FCFEF7CEFEC1
:10343000002317E0FB6801229A80FB6828331946B5
:103440001548FFF75DFA154B1A68FB68DB681946EB
:10345000104601F003F9FB680022DA603869FEF7D4
:10346000CDFC002318461837BD4680BD30350020FE
:103470001402000234350020210200024C350020E5
:103480000702000250350020483500200A020002E1
:103490005435002038350020603500200C350020E0
:1034A00080B584B000AF7860FEF7F4FD0346002BD2
:1034B00001D01D4B33E01D4B1B88002B01D01C4B52
:1034C0002DE07B68002B03D100F0AEF8034626E028
:1034D000FEF78EFCF860174B1B682833184600F087
:1034E000B9F9144B1B689A88124B1B6822F004022E
:1034F00092B29A800F4B1B6879681846FFF78AFAD8
:103500000C4B1B689A880B4B1B6842F0200292B24E
:103510009A80F868FEF772FCFEF75EFE00231846FC
:103520001037BD4680BD00BF0D020003503500209E
:103530000E0200025435002080B586B000AFF8605E
:10354000B9607A60184B1B687B617B692833184629
:1035500000F080F97B699B8823F004039AB27B69B1
:103560009A807B6928333B617B699A88BB689BB2F0
:1035700013439AB27B699A803969F868FFF7D9F9E1
:103580007B68B3F1FF3F0AD07B699B8843F040031F
:103590009AB27B699A8079687869FFF73BFA00BF35
:1035A0001837BD4680BD00BF5435002080B582B0BD
:1035B00000AF786039607B6828331846FFF7C8F998
:1035C0007B689A883B689BB2DB439BB213409AB2FC
:1035D0007B689A807B689B8803F04003002B09D0AE
:1035E0007868FFF79FFA7B689B8823F040039AB2C4
:1035F0007B689A807B689B8803F00203002B0FD1C5
:103600007B689B8843F004039AB27B689A807B684E
:1036100003F128027B68DB881946104600F0F0F8B9
:1036200000BF0837BD4680BD80B582B000AF002323
:103630007B60244B1B681A69234B1B689A4201D399
:10364000224B3AE01F4B1B689B8803F00403002BBE
:1036500001D1002331E0FEF7CBFB3860194B1B682A
:10366000DB88184600F040F978607B68012B20D990
:10367000144B1B6828331846FFF76AF9114B1B6877
:103680009A88104B1B6842F0040292B29A800D4B4C
:103690001B6803F128020B4B1B68DB881946104698
:1036A00000F0AEF83868FEF7A9FBFEF795FD0023A1
:1036B00003E03868FEF7A2FB054B18460837BD4605
:1036C00080BD00BF543500204C35002007020002A9
:1036D0001002000280B483B000AF78607B687A6823
:1036E0005A607B687A681A6000BF0C37BD465DF887
:1036F000047B704780B483B000AF786039607B682A
:103700005A683B685A603B687A681A607B685B68F5
:103710003A681A607B683A685A6000BF0C37BD4649
:103720005DF8047B704780B582B000AF7860396087
:103730007B681B6839681846FFF7DCFF00BF083755
:10374000BD4680BD80B483B000AF78607B685B68A5
:103750007A6812681A607B681B687A6852685A60D7
:103760007B6800225A607B6800221A6000BF0C3719
:10377000BD465DF8047B704780B483B000AF7860CD
:103780007B685B687A689A420CBF01230023DBB236
:1037900018460C37BD465DF8047B704780B582B093
:1037A00000AF00237B6000233B604FF480733B60DD
:1037B000114B1B683968184600F00DFF03460F4A8D
:1037C00013600E4B1B68002B11D000237B600AE0B6
:1037D0000A4B1A687B68DB0013441846FFF77AFF30
:1037E0007B6801337B607B681F2BF1D900E000BF51
:1037F0000837BD4680BD00BF0C350020C83600200C
:1038000080B582B000AF78603960104B1A683B68B1
:10381000DB0013441846FFF7AFFF0346002B08D028
:103820004FF000423B68DA40094B1B681343084ADB
:103830001360064B1A683B68DB001344796818462E
:10384000FFF771FF00BF0837BD4680BDC8360020B6
:10385000C402002080B584B000AF78607868FFF7BC
:1038600071FF7B68283BFB600D4B1A68FB68DB88A7
:10387000DB0013441846FFF77FFF0346002B0BD0F5
:10388000FB68DB881A464FF00043D340DA43054B10
:103890001B681340034A136000BF1037BD4680BD4C
:1038A000C8360020C402002080B483B000AF0023DB
:1038B0007B600B4B1B68002B0BD0094B1B68B3FACA
:1038C00083F37B60074B1A687B68DB0013445B68FB
:1038D00000E0002318460C37BD465DF8047B7047B6
:1038E000C4020020C836002080B485B000AF7860E4
:1038F0000023FB600023BB600E4B1A687B68DB0073
:1039000013445B68BB6005E0FB680133FB60BB6888
:103910005B68BB60074B1A687B68DB001344BA68BE
:103920009A42F1D1FB6818461437BD465DF8047B16
:10393000704700BFC836002080B483B000AF786005
:103940007B687A685A607B687A681A6000BF0C37B7
:10395000BD465DF8047B704780B483B000AF7860EB
:1039600039607B685A683B685A603B687A681A60BD
:103970007B685B683A681A607B683A685A6000BF87
:103980000C37BD465DF8047B704780B582B000AF50
:10399000786039607B681B6839681846FFF7DCFF80
:1039A00000BF0837BD4680BD80B582B000AF1D4B5B
:1039B0001B684FF4DC71184600F00DFE03461A4AEE
:1039C0001360194B1B68002B01D1184B25E0164BD7
:1039D0001B684FF4DC720021184620F0AAFB144843
:1039E000FFF7AAFF0023FB8013E00F4B1A68FB8848
:1039F0002C2101FB03F313443B603B68FA885A8196
:103A00003B681C3319460A48FFF7BFFFFB880133A8
:103A1000FB80FB88092BE8D9002318460837BD46F0
:103A200080BD00BF0C350020D43600200106000206
:103A3000CC36002080B483B000AF78607B687A68B1
:103A40005A607B687A681A6000BF0C37BD465DF823
:103A5000047B704780B483B000AF786039607B68C6
:103A60005A683B685A603B687A681A607B685B6892
:103A70003A681A607B683A685A6000BF0C37BD46E6
:103A80005DF8047B704780B582B000AF7860396024
:103A90007B681B6839681846FFF7DCFF00BF0837F2
:103AA000BD4680BD80B483B000AF78607B685B6842
:103AB0007A6812681A607B681B687A6852685A6074
:103AC0007B6800225A607B6800221A6000BF0C37B6
:103AD000BD465DF8047B704780B483B000AF78606A
:103AE0007B685B687A689A420CBF01230023DBB2D3
:103AF00018460C37BD465DF8047B704780B582B030
:103B000000AF1948FFF796FF184B1B684FF4A071E0
:103B1000184600F060FD0346154A1360144B1B68FD
:103B2000002B01D1134B1BE00023FB8014E0104B52
:103B30001A68FB881B0113443B603B68FA88DA80F3
:103B40003B6800221A803B68083319460648FFF795
:103B50009AFFFB880133FB80FB88132BE7D90023F6
:103B600018460837BD4680BDD83600200C350020E9
:103B7000E03600200007000280B58AB002AF03469D
:103B80003A60FB800B46BB803B68002B01D1254B84
:103B900043E0FA88BB889A4204D9234BFB61234B4C
:103BA000BB6131E0FEF724F978612148FFF794FF0B
:103BB0000346002B07D07869FEF720F91D4BFB6107
:103BC0001A4BBB6120E01A4B5B683B613869FFF719
:103BD00069FF3B69083BFB60FB68FA885A80FB6819
:103BE00001221A80FB68BA889A80FB68083318465D
:103BF000FFF720FFFB68DB881A463B681A6078698C
:103C0000FEF7FCF8002308E0002300930023FA6984
:103C1000B969094801F060FDFB6918462037BD46C7
:103C200080BD00BF0207000208070002F8C3B2A16E
:103C3000D836002003070002847F020880B58AB0CE
:103C400002AF78607B68132B04D9284BFB61284BAB
:103C5000BB613EE0274B1A687B681B0113447B6104
:103C6000FEF7C6F838617B691B88002B19D13869CB
:103C7000FEF7C4F81D4BFB611D4BBB6129E07B695E
:103C8000DB68283BFB60FB6800229A610821F8682A
:103C9000FFF78CFCFB689B8843F040039AB2FB68FB
:103CA0009A807B6908331846FFF716FF0346002BFE
:103CB000E5D07B69083319460F48FFF7CBFE7B69D7
:103CC00000221A803869FEF799F8FEF785FA00237A
:103CD00008E0002300930023FA69B969074801F05E
:103CE000FBFCFB6918462037BD4680BD010700027A
:103CF000F8C3B2A1E0360020D8360020847F020845
:103D000080B588B002AF786039607B68132B09D921
:103D10000023009300233E4A3E493F4801F0DCFC6B
:103D20003B4B70E03D4B1A687B681B011344FB6002
:103D3000FEF75EF87861FB681B88002B0CD1786970
:103D4000FEF75CF8002300930023314A31493248E2
:103D500001F0C2FC2E4B56E0FB685B88002B0AD0BA
:103D6000FB685B88013B9AB2FB685A807869FEF772
:103D700045F8002347E03B68002B02D1284B3B610C
:103D800035E0FEF787F90346002B02D0254B3B6157
:103D90002DE0254B1B88002B02D0244B3B6126E0F5
:103DA000234B1B68BB60BB68FA689A61FB680833E9
:103DB0003A6808211846FFF7BFFB7869FEF71EF83E
:103DC000FEF70AFABB689B8803F04003002B0CD077
:103DD000FEF70EF87861BB689B8823F040039AB227
:103DE000BB689A80134B3B6101E000230BE07869CC
:103DF000FEF704F80023009300233A6905490648BA
:103E000001F06AFC3B6918461837BD4680BD00BF0B
:103E100001070002F8C3B2A1847F0208E036002047
:103E200004070002050700025035002006070002C3
:103E3000543500200707000280B588B002AF7860D3
:103E40002C4B1A687B681B0113447B617B68132B26
:103E500001D9294B49E0FDF7CBFF38617B691B880D
:103E6000002B0CD13869FDF7C9FF00230093002314
:103E7000214A2249224801F02FFC1F4B35E07B6983
:103E80009A887B695B889A420CD13869FDF7B6FF46
:103E90000023009300231B4A1849194801F01CFC19
:103EA000184B22E07B6908331846FFF715FE0346DE
:103EB000002B10D17B69DB68283BFB60FB6800228C
:103EC0009A610821F868FFF771FB3869FDF796FFE2
:103ED000FEF782F908E07B695B8801339AB27B695F
:103EE0005A803869FDF78AFF002318461837BD4607
:103EF00080BD00BFE036002001070002F8C3B2A178
:103F0000847F02080807000280B483B000AF7860A5
:103F10007B687A685A607B687A681A6000BF0C37E1
:103F2000BD465DF8047B704780B483B000AF786015
:103F300039607B685A683B685A603B687A681A60E7
:103F40007B685B683A681A607B683A685A6000BFB1
:103F50000C37BD465DF8047B704780B582B000AF7A
:103F6000786039607B681B6839681846FFF7DCFFAA
:103F700000BF0837BD4680BD80B483B000AF786015
:103F80007B685B687A6812681A607B681B687A686D
:103F900052685A607B6800225A607B6800221A606F
:103FA00000BF0C37BD465DF8047B704780B483B01A
:103FB00000AF78607B685B687A689A420CBF012327
:103FC0000023DBB218460C37BD465DF8047B704712
:103FD00080B582B000AF174B1B68002B01D00023C7
:103FE00024E0144B144A1A601448FFF78DFF002395
:103FF0007B6017E00F4B19687A6813465B00134427
:10400000DB000B443B603B687A685A603B680022E7
:104010001A703B68083319460848FFF79EFF7B6813
:1040200001337B607B68132BE4D9002318460837E3
:10403000BD4680BDC8020020CC020020E43600202E
:1040400080B58AB002AF7860254B1B68002B01D188
:10405000FFF7BEFF7B68002B01D1224B3CE0FDF750
:10406000C7FEF8612048FFF7A1FF0346002B11D0DF
:10407000F869FDF7C3FE1D4B3B611D4BFB6000BFA4
:104080000023009300233A69F9681A4801F024FBE1
:104090003B6921E0144B5B68BB61B869FFF76CFFBB
:1040A000BB69083B7B617B6900225A807B690122E6
:1040B0001A707B6900229A827B6900221A617B69EF
:1040C00008331846FFF720FF7B695A687B681A603F
:1040D000F869FDF793FE002318462037BD4680BDE2
:1040E000C8020020021D0002E4360020031D000269
:1040F000F8C3B2A1987F020880B588B002AF78609B
:104100007B68132B04D9264B7B61264B3B6139E03E
:10411000254B19687A6813465B001344DB000B4497
:10412000FB60FDF765FEB860FB681B78002B07D1CC
:10413000B868FDF763FE1A4B7B611A4B3B6121E0C7
:10414000FB6808331846FFF731FF0346002B03D006
:10415000FB685B88002B07D0B868FDF74FFE134B58
:104160007B61104B3B610DE0FB680833194610483A
:10417000FFF7DAFEFB6800221A70B868FDF73EFE12
:10418000002308E00023009300237A693969094875
:1041900001F0A2FA7B6918461837BD4680BD00BF02
:1041A000011D0002F8C3B2A1C8020020091D0002CF
:1041B000E4360020987F020880B588B002AF7860AE
:1041C00039607B68132B09D9002300930023564ADA
:1041D0005649574801F080FA534BA1E0554B1968F6
:1041E0007A6813465B001344DB000B443B61FDF728
:1041F000FFFDF8603B691B78002B0CD1F868FDF7D8
:10420000FDFD002300930023474A4849484801F038
:1042100063FA454B84E0FDF73DFF0346002B04D0D5
:10422000F868FDF7EBFD444B7AE0444B1B68BB603C
:104230003B695B88002B11D13B695B8801339AB2E3
:104240003B695A803B69BA681A61BB68DA883B6986
:104250009A82F868FDF7D2FD002361E03B691B6993
:10426000BA689A420AD13B695B8801339AB23B69CA
:104270005A80F868FDF7C2FD002351E03B68002B2F
:1042800004D1F868FDF7BAFD2D4B49E02D4B1B8892
:10429000002B06D02C4B7B6100BFF868FDF7AEFD0C
:1042A00035E0BB683A69DA613B691B69DA88BB684B
:1042B000DB889A4207D93B691A69BB68DB881946D3
:1042C0001046FEF774FB3B6908333A68082118462C
:1042D000FFF732F9F868FDF791FDFDF77DFFBB6848
:1042E0009B8803F04003002B0FD0FDF781FDF860A1
:1042F000BB689B8823F040039AB2BB689A80F86839
:10430000FDF77CFD114B7B6101E0002308E00023F9
:10431000009300237A690549054801F0DDF97B69BE
:1043200018461837BD4680BD011D0002F8C3B2A172
:10433000987F0208C8020020051D000254350020A5
:10434000041D000250350020061D0002071D00025A
:1043500080B588B002AF7860404B19687A68134620
:104360005B001344DB000B447B61FDF741FD3861CA
:104370007B68132B03D87B691B78002B0CD1386921
:10438000FDF73CFD002300930023354A35493648AC
:1043900001F0A2F9324B5DE0344B1B68FB607B6996
:1043A0005B88002B04D07B691B69FA689A420CD0A9
:1043B0003869FDF723FD002300930023284A29498B
:1043C000294801F089F9264B44E07B695B88013B71
:1043D0009AB27B695A807B695B88002B04D038696C
:1043E000FDF70CFD002335E07B691B69DA887B69EA
:1043F0009B8A9A4207D07B691A697B699B8A194616
:104400001046FEF7D4FA7B6908331846FFF7CEFD55
:104410000346002B1AD17B69DB68283BBB607B69B4
:1044200001225A807B69BA681A61BB68DA887B69A5
:104430009A82BB680022DA610821B868FFF7B6F8F3
:104440003869FDF7DBFCFDF7C7FE02E03869FDF7D0
:10445000D5FC002318461837BD4680BDC802002091
:10446000011D0002F8C3B2A1987F02085435002054
:1044700080B584B000AF786039607B6803F00303D7
:104480003A68D31A3B603B6823F003033B607B68C8
:1044900023F003037B607B68002B03D03B68B3F5FC
:1044A0000C7F01D8012314E07B68FB60F86800F002
:1044B00051FCFB6803F50C713B68A3F50C731A46BD
:1044C000F86800F06CFC0346002B01D0012300E0EB
:1044D000002318461037BD4680BD000080B582B06D
:1044E00000AF1A4B7B607B681B6818467B685A6874
:1044F0007B681B68D31A1946FFF7BAFF38603B6820
:10450000002B01D03B681DE07B681B681A46104BEE
:104510001A607B6808337B600FE00D4B18687B687E
:104520001B6819467B685A687B681B68D31A1A4651
:1045300000F035FC7B6808337B607B685B68002B90
:10454000EBD1002318460837BD4680BD0011030893
:104550000C35002080B584B000AFF860B9607A6097
:10456000BA687968F86800F017FD034618461037F6
:10457000BD4680BD80B582B000AF786039603968D3
:10458000786800F05FFD034618460837BD4680BDD9
:1045900080B582B000AF786039603968786800F023
:1045A00060FD0346002B01D0002300E001231846E4
:1045B0000837BD4680BD80B584B000AFF860B960F3
:1045C0007A607A68B968F86800F0B9FD0346184661
:1045D0001037BD4680BD80B584B000AF78603960CB
:1045E0000023FB603B68002B01D1FB6812E07B6875
:1045F000002B01D1FB680DE03968786800F082FF7C
:10460000F860FB68002B04D139687868FFF7B2FFC7
:10461000F860FB6818461037BD4680BD80B584B091
:1046200000AFF860B9607A607A68B968F868FFF737
:1046300091FF034618461037BD4680BD80B584B053
:1046400000AFF860B9607A607A68B968F868FFF717
:10465000B2FF034618461037BD4680BD80B584B012
:1046600000AF786039600023FB607B68002B02D0CC
:104670003B68002B01D1012312E03968786800F013
:10468000B8FFF860FB68012B04D039687868FFF741
:104690007FFFF860FB68012B14BF01230023DBB20E
:1046A00018461037BD4680BD80B483B000AF786037
:1046B0007B6803F5F87318460C37BD465DF8047B3C
:1046C0007047000080B584B000AF786039607B68C7
:1046D000002B02D1094B1B6800E07B68FB603B6844
:1046E000002B14BF01230023DBB21946F86800F049
:1046F000D3FD00BF1037BD4680BD00BF0C35002084
:1047000080B483B000AF78607B687A685A607B6859
:104710005A687B681A6000BF0C37BD465DF8047BA1
:10472000704780B485B000AFF860B9607A607B688C
:10473000FA681A607B68BA685A60FB687A685A60DF
:10474000BB687A681A6000BF1437BD465DF8047B09
:10475000704780B582B000AF786039607B681B68B5
:104760003A6879681846FFF7DCFF00BF0837BD4696
:1047700080BD80B483B000AF78607B681B687A68C6
:1047800052685A607B685B687A6812681A6000BF7A
:104790000C37BD465DF8047B704780B483B000AF32
:1047A00078607B681B687A689A420CBF01230023FB
:1047B000DBB218460C37BD465DF8047B704780B409
:1047C00083B000AF78607B685B6803F00103002B67
:1047D0000CBF01230023DBB218460C37BD465DF841
:1047E000047B704780B483B000AF78607B685B68FF
:1047F00043F001027B685A6000BF0C37BD465DF88C
:10480000047B704780B483B000AF78607B685B68DE
:1048100023F001027B685A6000BF0C37BD465DF88B
:10482000047B704780B483B000AF78607B685B68BE
:1048300023F001037A68134418460C37BD465DF82F
:10484000047B704780B483B000AF78607B681B68DE
:1048500018460C37BD465DF8047B704780B483B0C2
:1048600000AF78607B68083318460C37BD465DF8AA
:10487000047B704780B485B000AF78607B6853F8E4
:10488000043CFB60FB6803F00103002B02D07B6853
:10489000083B00E0FB6818461437BD465DF8047B12
:1048A000704780B483B000AF786039607B68043BA8
:1048B0003A681A6000BF0C37BD465DF8047B70474C
:1048C00080B483B000AF7860002318460C37BD4633
:1048D0005DF8047B704780B483B000AF78607B687C
:1048E000B3FA83F3C3F11F0318460C37BD465DF8D6
:1048F000047B704780B483B000AF786039603B6858
:10490000023B7A6822FA03F3043B18460C37BD4693
:104910005DF8047B704780B584B000AF7860396083
:104920003B685B681846FFF7D6FFF8603B685B683A
:10493000F9681846FFF7DEFFB860FB681C2B02DD44
:104940004FF0FF3349E07B681B680121FA6801FAE8
:1049500002F21A437B681A60FB68043B7A681344CE
:104960001B795AB20121BB6801FA03F35BB213430E
:104970005AB2FB68043BD1B27A6813440A461A71F2
:10498000FB68043BFB607B68FA689100BA680A44E4
:10499000083253F82230002B0ED13B6808331846FA
:1049A000FFF7AEFE7B68FA689100BA680A440832E5
:1049B000396843F822100FE07B68FA689100BA6802
:1049C0000A44083253F8223003F108023B680833E6
:1049D00019461046FFF7BDFE002318461037BD46A6
:1049E00080BD80B584B000AF786039603B685B689B
:1049F0001846FFF770FFF8603B685B68F968184677
:104A0000FFF778FFB860FB68043BFB603B68083346
:104A10001846FFF7C2FE0346002B1CD17B68FA68DC
:104A20009100BA680A44083253F822303A689A4230
:104A30000BD13B68DB68A3F108017B68FA68900042
:104A4000BA680244083243F822103B68083318461B
:104A5000FFF78FFE30E07B68FA689100BA680A447D
:104A60000832002143F822107A68FB6813440433AB
:104A70001B785AB20121BB6801FA03F35BB2DB4336
:104A80005BB213405BB2D9B27A68FB68134404335B
:104A90000A461A707A68FB68134404331B78002BAB
:104AA0000AD17B681B68FA680432012101FA02F21C
:104AB000D2431A407B681A601037BD4680BD80B56E
:104AC00086B000AF786039603868FFF704FF78611E
:104AD0007B69023B012202FA03F31A463B68134446
:104AE000013B3B603868FFF7F6FE7861796938680A
:104AF000FFF700FFF8607B691D2B01DD002341E01B
:104B00007B69043B7A6813441B7919464FF0FF32E6
:104B1000FB6802FA03F30B403B613B69002B1ED19B
:104B20007B681A687B6901334FF0FF3101FA03F3A8
:104B30001340BB60BB68002B01D1002322E0BB689F
:104B4000DA43BB68013B1340B3FA83F3C3F120039C
:104B50007B617B69043B7A6813441B793B613B6949
:104B6000DA433B69013B1340B3FA83F3C3F12003FB
:104B7000FB607B691A1F7B689100FA680A4408325F
:104B800053F8223018461837BD4680BD80B483B034
:104B900000AF786039607B681B685A1C7B681A60BC
:104BA0007B685A683B685B681344A3F108027B6822
:104BB0005A6000BF0C37BD465DF8047B704780B477
:104BC00083B000AF786039607B681B685A1E7B68D1
:104BD0001A607B685A683B685B68D31A03F1080265
:104BE0007B685A6000BF0C37BD465DF8047B704798
:104BF0002DE9B00383B000AF786039607B689B68B3
:104C00005A1C7B689A607B68DA683B685B681A4468
:104C10007B68DA607B68D3E9062312F1010843F16F
:104C200000097B68C3E906897B68D3E908013B6812
:104C30005B681A464FF00003841841EB03057B685C
:104C4000C3E908457B68DA687B681B699A4203D927
:104C50007B68DA687B681A6100BF0C37BD46BDE827
:104C6000B00370472DE9B00383B000AF78603960BE
:104C70007B689B685A1E7B689A607B68DA683B6831
:104C80005B68D21A7B68DA607B68D3E90A2312F189
:104C9000010843F100097B68C3E90A897B68D3E90D
:104CA0000C013B685B681A464FF00003841841EB27
:104CB00003057B68C3E90C4500BF0C37BD46BDE862
:104CC000B003704780B582B000AF786039607B6810
:104CD00039681846FFF71FFE0346002B02D04FF03D
:104CE000FF3307E07B6803F5DC7339681846FFF78C
:104CF0004DFF002318460837BD4680BD80B582B001
:104D000000AF786039607B6839681846FFF769FE44
:104D10007B6803F5DC7339681846FFF750FF00BF66
:104D20000837BD4680BD80B584B000AF786039607B
:104D30007B6839681846FFF7C2FEF860FB68002BF5
:104D400003D0F9687868FFF7D9FFFB681846103779
:104D5000BD4680BD80B584B000AF78607B68002B15
:104D600002D14FF0FF3316E04FF40C720021786847
:104D70001FF0DFF97B6803F5DA731846FFF760F977
:104D8000F860FB68002B01D0FB6804E07B681846E4
:104D9000FFF796FD002318461037BD4680BD80B54D
:104DA00088B000AFF860B9607A60FB68002B02D071
:104DB000BB68002B02D14FF0FF336EE0BB6803F0FD
:104DC00003037A68D31A7B607B6823F003037B605C
:104DD000BB6823F00303BB607B68002B02DA4FF053
:104DE000FF335AE07B68272B02D84FF0FF3354E0A3
:104DF000FB68D3F8B4314FF0FF311846FFF7DCF908
:104E00000346FB61FB69002B01D0FB6945E0BB68F1
:104E1000BB61BB697A685A60FB68D3F8B021BB6993
:104E20001A60FB68BA69C3F8B021BB6908337B61BB
:104E30007B6900221A607B6908225A607869FFF753
:104E4000D1FC7869FFF7EEFC7861BB6903F10802D9
:104E50007B691A607B68A3F118027B695A607969E3
:104E6000F868FFF72FFF0346002B02D04FF0FF3307
:104E700013E07869FFF7D6FC38613B697A691A60FC
:104E80003B6908225A603869FFF7ACFCFB68D3F82D
:104E9000B4311846FFF75CFA002318462037BD46A8
:104EA00080BD80B58AB000AFF860B9607A603B60C1
:104EB000B868FFF7D3FC38623A6A7B6813445A1E1D
:104EC0007B685B421340FB61BB687B62FA693B6AAB
:104ED0009A4227D0FA69BB68D31A182B04D8B9684C
:104EE000F869FFF7DEFC1DE0FB69083B7B627B6A2B
:104EF000BA681A60BB685B68796ABA688A1A9A1AD3
:104F00007B6A5A60786AFFF78DFC02467B6A136001
:104F10007A6ABB68D31A1A46BB685A60B968F868DF
:104F2000FFF7D0FE7B6A5B68F9697A6A8A1A9B1A76
:104F3000BB61BA693B68D31A0F2B1ED97B6A5A68CA
:104F40003968BB69CB1A1A447B6A5A60FA693B68B4
:104F50001344BB60BB687A6A1A60BA693B68D21AAC
:104F6000BB685A60B868FFF75DFC78617B69BA6816
:104F70001A60B968F868FFF7A5FEFB6803F5DC73F3
:104F8000796A1846FFF734FE786AFFF72BFCFB6955
:104F900018462837BD4680BD80B586B000AFF860A2
:104FA000B9607A6000237B61FB68002B01D100238C
:104FB00044E0BB685A1EBB681340002B01D000239D
:104FC0003CE07B68002B01D07B6800E001237B6024
:104FD000BB68042B38BF0423BB607B68072B01D858
:104FE00008237B607B68033323F003037B60FB684B
:104FF000D3F8B4314FF0FF311846FFF7DDF8034620
:10500000002B01D0002319E07A68BB6813440433F5
:105010001946F868FFF787FE38613B69002B06D018
:105020007B68BA683969F868FFF73BFF7861FB680D
:10503000D3F8B4311846FFF78BF97B691846183757
:10504000BD4680BD80B582B000AF786039603A68F7
:1050500004217868FFF7A0FF034618460837BD46CD
:1050600080BD80B586B000AF786039607B68002B6A
:1050700002D14FF0FF335EE03B68002B01D10023EB
:1050800059E03868FFF7F6FB78617B68D3F8B431F4
:105090004FF0FF311846FFF78FF80346002B02D080
:1050A0004FF0FF3347E07869FFF7ACFB7B6803F50F
:1050B000DC7379691846FFF7D5FD7869FFF7C2FB05
:1050C000F8607869FFF7AEFB3861F868FFF777FBA7
:1050D0000346002B0CD0F9687868FFF70FFEFB68D9
:1050E0005A687B695B681A44FB685A60FB687B619D
:1050F0003869FFF764FB0346002B0ED039697868E6
:10510000FFF7FCFD7B695A683B695B681A447B6961
:105110005A607869FFF786FB38613B697A691A60E3
:1051200079697868FFF7CEFD7B68D3F8B43118460B
:10513000FFF70EF9002318461837BD4680BD80B52D
:105140008AB000AFF860B9607A60BB68002B05D107
:105150007968F868FFF776FF034680E07B68002BEC
:1051600005D1B968F868FFF77CFF002377E07B681A
:10517000072B02D808237B6004E07B68073323F009
:1051800007037B60B868FFF775FB3862386AFFF782
:1051900049FB78627A6ABB68D31AFB61FA697B685B
:1051A0009A4212D27968F868FFF74CFF38613B6980
:1051B000002B08D0FA69B96838691EF092FFB96807
:1051C000F868FFF74EFF3B6949E0FA697B68D31A3C
:1051D000BB61BB690F2B01D8BB6840E0BB695B4278
:1051E0007A6A13447B617B693A6A1A60FB68D3F878
:1051F000B4314FF0FF311846FEF7DEFF0346002BB7
:1052000001D0BB682BE03B6A5A68BB69D21A3B6A83
:105210005A60786AFFF7D3FA0346002B0ED07B6AF8
:105220005A68BB691A447B695A60796AF868FFF763
:1052300065FD7869FFF7F6FA786202E07B69BA6982
:105240005A607B6A7A691A607969F868FFF73AFDF3
:10525000FB68D3F8B4311846FFF77AF8BB681846F4
:105260002837BD4680BD80B584B000AF78607B68CC
:105270000833FB60FB681B68002B03D0FB685B688E
:10528000092B04D0F868FFF7CDFAF860F2E700BF09
:1052900000BF1037BD4680BD80B584B000AF7860D8
:1052A0000B46FB707B68D3F8B031FB607B68D3F8AA
:1052B000B4314FF0FF311846FEF77EFF0346002B56
:1052C00013D1FB78002B09D005E0F868FFF7CBFF7E
:1052D000FB681B68FB60FB68002BF6D17B68D3F88A
:1052E000B4311846FFF734F800E000BF1037BD4670
:1052F00080BD80B483B000AF78607B681B681846BF
:105300000C37BD465DF8047B704780B483B000AFB6
:10531000786039607B681B683A689A4201D3002341
:1053200011E03B685B097A689B0013445A683B684C
:1053300003F01F0322FA03F303F00103002B14BF51
:1053400001230023DBB218460C37BD465DF8047B11
:10535000704780B485B000AF786039607B681A1DF3
:105360003B685B099B001344FB607B681B683A68E1
:105370009A420CD2FB681A683B6803F01F030121B4
:1053800001FA03F3DB431A40FB681A6000E000BF38
:105390001437BD465DF8047B704780B489B000AF18
:1053A00078607B681B681F335B09FB607B68043394
:1053B000BB6100233B610023FB6129E0BB691B68E3
:1053C000B3F1FF3F06D1FB690133FB61BB690433D5
:1053D000BB611DE0BB691B68DB437B6105E07B694A
:1053E0005B087B613B6901333B617B69002BF6D134
:1053F000BB691A683B69013B012101FA03F31A43B7
:10540000BB691A60FB695A013B691344013B05E023
:10541000FA69FB689A42D1D34FF0FF33184624371C
:10542000BD465DF8047B704780B584B000AF7860FE
:105430007B689B681846FFF7B0FFF860FB68002B9D
:1054400001DA002307E07B685A687B681B68F9680B
:1054500001FB03F3134418461037BD4680BD80B5E9
:1054600086B000AF786039603B687B617B685B68C1
:105470007A69D31A3B617B681B683A69B2FBF3F324
:10548000FB607B681A683B69B3FBF2F102FB01F237
:105490009B1A002B11D17B689B681846FFF729FFE8
:1054A0000246FB68934208D27B689B68F9681846FD
:1054B000FFF72BFF0346002B01D1002306E07B689A
:1054C0009B68F9681846FFF744FF01231846183710
:1054D000BD4680BD80B483B000AF786039607B6822
:1054E0004DF6DE621A803B68DAB27B689A707B68A0
:1054F0000022DA707B68043318460C37BD465DF82D
:10550000047B704780B588B000AF786039600023B5
:10551000FB617868FFF7C8F8786100233B610023DE
:10552000BB613B68802B01D900235EE00023BB6197
:1055300057E07A69BB691B0113441B683A689A42B9
:105540004CD8FCF755FCF8607A69BB691B01134421
:1055500008331A687969BB691B010B4404331B6863
:105560009A4204D3F868FCF749FC00233DE07A69CD
:10557000BB691B0113440C331B68002B04D1F86872
:10558000FCF73CFC002330E0BB691B017A69134443
:105590003B613B69DB681846FFF746FFF861FB6932
:1055A000002B16D07A69BB691B0113441B6819468E
:1055B000F869FFF78FFFF8617A69BB691B01134433
:1055C00008331B685A1C7969BB691B010B440833FB
:1055D0001A60F868FCF712FCFB6906E0BB6901334E
:1055E000BB61BB69032BA4D9002318462037BD46F5
:1055F00080BD80B588B000AF786039607868FFF70B
:1056000053F878610023FB610023BB613B68043BD6
:105610003B613B691B884DF6DE62934201D000235B
:1056200038E00023BB6131E03B699B7819467A6919
:10563000BB691B0113441B68994224D8FCF7D8FBB3
:10564000F860BB691B017A691344BB60BB68DB6807
:1056500039691846FFF703FF0346012B0ED10123DA
:10566000FB617A69BB691B01134408331B685A1E2E
:105670007969BB691B010B4408331A60F868FCF7B1
:10568000BDFBFB6906E0BB690133BB61BB69032B52
:10569000CAD9002318462037BD4680BD80B483B0E8
:1056A00000AF786039607A683B681344013B7A68E0
:1056B0009A4207D27A683B6813445A1E3B685B42A1
:1056C000134003E03B685A427B68134018460C378E
:1056D000BD465DF8047B704790B587B002AFF860B7
:1056E000B9607A603B600C4B1B68002B08D00A4BFA
:1056F0001C683B6A00933B687A68B968F868A04701
:10570000BB68064A934201D0002300E000231846FC
:105710001437BD4690BD00BFEC360020F8C3B2A1DF
:1057200090B589B004AF78603960304B0193304B4D
:105730000093304B304A314931481FF0C5FA0023FD
:10574000FB601FE02F4B1A68FB681B011344BB6012
:10575000BB681968BB689B8903F001032A4A52F8A9
:105760002320BB68DB891C46BB689B681846BB6866
:105770005B6801930090234624481FF0A5FAFB685C
:105780000133FB601F4B5B68FA689A42DADB002347
:10579000FB6021E01B4B9A68FB681B011344BB6054
:1057A000BB681A68BB689B8903F00103164951F86E
:1057B0002310BB68DB891846BB689B681C46BB6826
:1057C0005B680293019400900B46F96810481FF043
:1057D0007BFAFB680133FB600A4BDB68FA689A428C
:1057E000D8DB002318461437BD4690BDE47F02087D
:1057F000F07F0208B47F0208B87F0208C07F020869
:10580000C87F0208AC04002018000020F87F0208BE
:105810001480020880B586B000AF78600023FB607A
:1058200000237B6100237B6100233B6114E01F4B5D
:105830001A683B691B011344FB60FB681B6819462F
:105840007868FAF77DFE0346002B02D1FB687B6186
:1058500007E03B6901333B61144B5B683A699A424C
:10586000E5DB7B69002B1CD100233B6114E00F4B6F
:105870009A683B691B011344FB60FB681B6819466F
:105880007868FAF75DFE0346002B02D1FB687B6166
:1058900007E03B6901333B61044BDB683A699A429C
:1058A000E5DB7B6918461837BD4680BDAC04002097
:1058B00090B585B000AF7860364B0022A3F8402049
:1058C0000023FB6024E0344B1A68FB681B0113447F
:1058D000BB60BB681C687868FAF73CFE03461A4652
:1058E000796820461FF00EFC0346002B0DD1294B92
:1058F000B3F840305A1C91B2264AA2F8401019461B
:10590000BB681B68234A42F82130FB680133FB6007
:10591000214B5B68FA689A4204DA1E4BB3F84030B8
:105920000F2BD0D90023FB6024E01B4B9A68FB6847
:105930001B011344BB60BB681C687868FAF70AFE59
:1059400003461A46796820461FF0DCFB0346002B0D
:105950000DD1104BB3F840305A1C91B20D4AA2F849
:1059600040101946BB681B680A4A42F82130FB68A0
:105970000133FB60084BDB68FA689A4204DA054B96
:10598000B3F840300F2BD0D9024B18461437BD4620
:1059900090BD00BFBC040020AC04002080B59AB0CC
:1059A00000AF78604FF0FF337B6610233B6507F153
:1059B0000C0107F150037A681846FBF7D9FC3B6DE0
:1059C000002B06D100210020FFF7AAFE00237B66F2
:1059D00058E0FB681846FFF71DFFB865BB6D002B4C
:1059E00008D1FB6819462A481FF06EF94FF0FF33C3
:1059F0007B6647E0BB6D9B89002B09D1BB6D9B6823
:105A00007B653A6D07F10C017B6D1046984739E0D4
:105A10003B6D032B1AD13B691E491846FAF790FDDE
:105A20000346002B12D17B690022002118461FF08B
:105A300035FC0346FB64BB6D9868BB6DDB891A4679
:105A400007F14C0319461EF04CFB1BE0BB6D9B6835
:105A50003B663B6E194610481FF036F90023FB6584
:105A60000AE03B6E5A1C3A661B7819460B481FF039
:105A70002BF9FB6D0133FB65BB6DDB891A46FB6DB2
:105A80009342EEDB7B6E18466837BD4680BD00BF93
:105A90003880020854800208588002086C8002088E
:105AA00080B483B000AF00237B6000233B600C4BCD
:105AB0007B600C4A0A4BD31A3B603B68002B08D032
:105AC0003B681B093B60084A7B6813603B68064AD9
:105AD0005360002318460C37BD465DF8047B7047C1
:105AE000487E0208C87E0208AC04002080B582B05F
:105AF00000AF786039600022012104481FF0E4F80B
:105B0000002318460837BD4680BD00BF74800208D8
:105B100080B500AF1EF09EFA0346184680BD000017
:105B200080B582B000AF786078681FF02DF9054B22
:105B30001B689B6818461EF069F900BF0837BD4610
:105B400080BD00BFB800002080B584B000AF786091
:105B50007868FAF7FFFC0346BB600023FB600AE0AD
:105B60007B681B781846FFF7DBFF7B6801337B609F
:105B7000FB680133FB60FA68BB689A42F0DB00BF48
:105B800000BF1037BD4680BD80B500AF0248FFF7AB
:105B9000DBFF00BF80BD00BFC480020880B584B0B9
:105BA00000AF78600023FB60094BBB600023FB6003
:105BB00005E0B868FFF7C8FFFB680133FB60FA68CF
:105BC0007B689A42F5DB00BF00BF1037BD4680BD41
:105BD000D080020880B584B000AF78600023FB60FD
:105BE0000023FB6005E02020FFF79AFFFB680133EC
:105BF000FB60FA687B689A42F5DB00BF00BF103794
:105C0000BD4680BD80B584B000AF786039600023A8
:105C1000FB600023FB6016E03B68FB72FB7A1846D2
:105C2000FFF77EFF3B681B0AFB72FB7A1846FFF703
:105C300077FF3B681B0CFB72FB7A1846FFF770FF7F
:105C4000FB680133FB60FA687B689A42E4DB00BFC3
:105C500000BF1037BD4680BD80B500AF0720FFF7FD
:105C60005FFF00BF80BD80B584B000AF78600023C7
:105C7000FB600023FB6005E00820FFF751FFFB6895
:105C80000133FB60FA687B689A42F5DB00BF00BF16
:105C90001037BD4680BD80B584B000AF786000236A
:105CA000FB600023FB600FE07868FB6801339B0119
:105CB0007A68134401331946FAF742FC0346002B75
:105CC00006D0FB680133FB60FB68032BECDD00E0D2
:105CD00000BFFB68042B29D17B6893F84131BB607E
:105CE000BB6801339B017A681344013340220021D1
:105CF00018461EF01EFABB6801339B017A681344F4
:105D000001337968402218461FF00EFABB68013350
:105D10005A4203F0030302F0030258BF5342BB6030
:105D2000BB68DAB27B6883F8412100BF00BF10373F
:105D3000BD4680BD90B587B000AF786039607B68A4
:105D40007A6892F8402013447B617869FAF702FC84
:105D50000346FB603868FAF7FDFB0346BB60386812
:105D6000FFF7F2FE7869FFF7EFFEF868FFF77BFFB9
:105D70007B6893F84020BB68DBB21344DAB27B68DF
:105D800083F840207C687B681846FAF7E3FB0246FC
:105D9000BB68134423447B617B695A1E7A610022ED
:105DA0001A7000233B610CE0BB685B427A691344C4
:105DB0001A787B691A707B69013B7B613B6901330F
:105DC0003B613A69FB689A42EEDBBB68C3F10103B1
:105DD0007A6913447B61BB681A46396878691FF099
:105DE000A3F900BF1C37BD4690BD000080B5DEB0F2
:105DF00000AF3B1D18600023C7F874310023C7F8BB
:105E0000703107F10C034FF4A172002118461EF007
:105E100090F9E54B1B681846FFF796FEFFF7B4FEB6
:105E2000FFF776FE0346C7F85031D7F85031002B04
:105E300000F00D83D7F85031B3F1FF3F00F0078336
:105E4000D7F85031FF2B00F00283D7F87431DBB262
:105E5000002B22D0D7F874311B0ADBB2002B09D1FA
